{
  "_format": "hh-sol-artifact-1",
  "contractName": "SubscriptionManager",
  "sourceName": "contracts/SubscriptionManager.sol",
  "abi": [
    {
      "inputs": [
        {
          "internalType": "address",
          "name": "_usdc",
          "type": "address"
        },
        {
          "internalType": "address",
          "name": "_botProxy",
          "type": "address"
        },
        {
          "internalType": "address",
          "name": "_treasury",
          "type": "address"
        }
      ],
      "stateMutability": "nonpayable",
      "type": "constructor"
    },
    {
      "inputs": [],
      "name": "EnforcedPause",
      "type": "error"
    },
    {
      "inputs": [],
      "name": "ExpectedPause",
      "type": "error"
    },
    {
      "inputs": [
        {
          "internalType": "address",
          "name": "owner",
          "type": "address"
        }
      ],
      "name": "OwnableInvalidOwner",
      "type": "error"
    },
    {
      "inputs": [
        {
          "internalType": "address",
          "name": "account",
          "type": "address"
        }
      ],
      "name": "OwnableUnauthorizedAccount",
      "type": "error"
    },
    {
      "inputs": [],
      "name": "ReentrancyGuardReentrantCall",
      "type": "error"
    },
    {
      "anonymous": false,
      "inputs": [
        {
          "indexed": true,
          "internalType": "address",
          "name": "oldProxy",
          "type": "address"
        },
        {
          "indexed": true,
          "internalType": "address",
          "name": "newProxy",
          "type": "address"
        }
      ],
      "name": "BotProxyUpdated",
      "type": "event"
    },
    {
      "anonymous": false,
      "inputs": [
        {
          "indexed": true,
          "internalType": "address",
          "name": "previousOwner",
          "type": "address"
        },
        {
          "indexed": true,
          "internalType": "address",
          "name": "newOwner",
          "type": "address"
        }
      ],
      "name": "OwnershipTransferred",
      "type": "event"
    },
    {
      "anonymous": false,
      "inputs": [
        {
          "indexed": false,
          "internalType": "address",
          "name": "account",
          "type": "address"
        }
      ],
      "name": "Paused",
      "type": "event"
    },
    {
      "anonymous": false,
      "inputs": [
        {
          "indexed": true,
          "internalType": "address",
          "name": "user",
          "type": "address"
        }
      ],
      "name": "SubscriptionCanceled",
      "type": "event"
    },
    {
      "anonymous": false,
      "inputs": [
        {
          "indexed": true,
          "internalType": "address",
          "name": "user",
          "type": "address"
        },
        {
          "indexed": false,
          "internalType": "enum SubscriptionManager.Tier",
          "name": "tier",
          "type": "uint8"
        },
        {
          "indexed": false,
          "internalType": "uint256",
          "name": "amount",
          "type": "uint256"
        },
        {
          "indexed": false,
          "internalType": "uint256",
          "name": "expiresAt",
          "type": "uint256"
        }
      ],
      "name": "SubscriptionPurchased",
      "type": "event"
    },
    {
      "anonymous": false,
      "inputs": [
        {
          "indexed": true,
          "internalType": "address",
          "name": "user",
          "type": "address"
        },
        {
          "indexed": false,
          "internalType": "enum SubscriptionManager.Tier",
          "name": "tier",
          "type": "uint8"
        },
        {
          "indexed": false,
          "internalType": "uint256",
          "name": "expiresAt",
          "type": "uint256"
        }
      ],
      "name": "SubscriptionRenewed",
      "type": "event"
    },
    {
      "anonymous": false,
      "inputs": [
        {
          "indexed": true,
          "internalType": "address",
          "name": "oldTreasury",
          "type": "address"
        },
        {
          "indexed": true,
          "internalType": "address",
          "name": "newTreasury",
          "type": "address"
        }
      ],
      "name": "TreasuryUpdated",
      "type": "event"
    },
    {
      "anonymous": false,
      "inputs": [
        {
          "indexed": false,
          "internalType": "address",
          "name": "account",
          "type": "address"
        }
      ],
      "name": "Unpaused",
      "type": "event"
    },
    {
      "inputs": [],
      "name": "BASIC_PRICE",
      "outputs": [
        {
          "internalType": "uint256",
          "name": "",
          "type": "uint256"
        }
      ],
      "stateMutability": "view",
      "type": "function"
    },
    {
      "inputs": [],
      "name": "PREMIUM_PRICE",
      "outputs": [
        {
          "internalType": "uint256",
          "name": "",
          "type": "uint256"
        }
      ],
      "stateMutability": "view",
      "type": "function"
    },
    {
      "inputs": [],
      "name": "PRO_PRICE",
      "outputs": [
        {
          "internalType": "uint256",
          "name": "",
          "type": "uint256"
        }
      ],
      "stateMutability": "view",
      "type": "function"
    },
    {
      "inputs": [],
      "name": "SUBSCRIPTION_DURATION",
      "outputs": [
        {
          "internalType": "uint256",
          "name": "",
          "type": "uint256"
        }
      ],
      "stateMutability": "view",
      "type": "function"
    },
    {
      "inputs": [],
      "name": "USDC",
      "outputs": [
        {
          "internalType": "address",
          "name": "",
          "type": "address"
        }
      ],
      "stateMutability": "view",
      "type": "function"
    },
    {
      "inputs": [],
      "name": "botProxy",
      "outputs": [
        {
          "internalType": "contract PolymarketBotProxy",
          "name": "",
          "type": "address"
        }
      ],
      "stateMutability": "view",
      "type": "function"
    },
    {
      "inputs": [],
      "name": "cancel",
      "outputs": [],
      "stateMutability": "nonpayable",
      "type": "function"
    },
    {
      "inputs": [
        {
          "internalType": "enum SubscriptionManager.Tier",
          "name": "tier",
          "type": "uint8"
        }
      ],
      "name": "getDefaultLimits",
      "outputs": [
        {
          "internalType": "uint256",
          "name": "maxTradeSize",
          "type": "uint256"
        },
        {
          "internalType": "uint256",
          "name": "dailyLimit",
          "type": "uint256"
        }
      ],
      "stateMutability": "pure",
      "type": "function"
    },
    {
      "inputs": [
        {
          "internalType": "address",
          "name": "user",
          "type": "address"
        }
      ],
      "name": "getSubscription",
      "outputs": [
        {
          "internalType": "enum SubscriptionManager.Tier",
          "name": "tier",
          "type": "uint8"
        },
        {
          "internalType": "uint256",
          "name": "expiresAt",
          "type": "uint256"
        },
        {
          "internalType": "uint256",
          "name": "lastPayment",
          "type": "uint256"
        },
        {
          "internalType": "bool",
          "name": "isActive",
          "type": "bool"
        },
        {
          "internalType": "bool",
          "name": "isExpired",
          "type": "bool"
        }
      ],
      "stateMutability": "view",
      "type": "function"
    },
    {
      "inputs": [
        {
          "internalType": "enum SubscriptionManager.Tier",
          "name": "tier",
          "type": "uint8"
        }
      ],
      "name": "getTierPrice",
      "outputs": [
        {
          "internalType": "uint256",
          "name": "",
          "type": "uint256"
        }
      ],
      "stateMutability": "pure",
      "type": "function"
    },
    {
      "inputs": [
        {
          "internalType": "address",
          "name": "user",
          "type": "address"
        }
      ],
      "name": "hasActiveSubscription",
      "outputs": [
        {
          "internalType": "bool",
          "name": "",
          "type": "bool"
        }
      ],
      "stateMutability": "view",
      "type": "function"
    },
    {
      "inputs": [],
      "name": "owner",
      "outputs": [
        {
          "internalType": "address",
          "name": "",
          "type": "address"
        }
      ],
      "stateMutability": "view",
      "type": "function"
    },
    {
      "inputs": [],
      "name": "pause",
      "outputs": [],
      "stateMutability": "nonpayable",
      "type": "function"
    },
    {
      "inputs": [],
      "name": "paused",
      "outputs": [
        {
          "internalType": "bool",
          "name": "",
          "type": "bool"
        }
      ],
      "stateMutability": "view",
      "type": "function"
    },
    {
      "inputs": [],
      "name": "renew",
      "outputs": [],
      "stateMutability": "nonpayable",
      "type": "function"
    },
    {
      "inputs": [],
      "name": "renounceOwnership",
      "outputs": [],
      "stateMutability": "nonpayable",
      "type": "function"
    },
    {
      "inputs": [
        {
          "internalType": "enum SubscriptionManager.Tier",
          "name": "tier",
          "type": "uint8"
        }
      ],
      "name": "subscribe",
      "outputs": [],
      "stateMutability": "nonpayable",
      "type": "function"
    },
    {
      "inputs": [
        {
          "internalType": "address",
          "name": "",
          "type": "address"
        }
      ],
      "name": "subscriptions",
      "outputs": [
        {
          "internalType": "enum SubscriptionManager.Tier",
          "name": "tier",
          "type": "uint8"
        },
        {
          "internalType": "uint256",
          "name": "expiresAt",
          "type": "uint256"
        },
        {
          "internalType": "uint256",
          "name": "lastPayment",
          "type": "uint256"
        },
        {
          "internalType": "bool",
          "name": "isActive",
          "type": "bool"
        }
      ],
      "stateMutability": "view",
      "type": "function"
    },
    {
      "inputs": [
        {
          "internalType": "address",
          "name": "newOwner",
          "type": "address"
        }
      ],
      "name": "transferOwnership",
      "outputs": [],
      "stateMutability": "nonpayable",
      "type": "function"
    },
    {
      "inputs": [],
      "name": "treasury",
      "outputs": [
        {
          "internalType": "address",
          "name": "",
          "type": "address"
        }
      ],
      "stateMutability": "view",
      "type": "function"
    },
    {
      "inputs": [],
      "name": "unpause",
      "outputs": [],
      "stateMutability": "nonpayable",
      "type": "function"
    },
    {
      "inputs": [
        {
          "internalType": "address",
          "name": "_newBotProxy",
          "type": "address"
        }
      ],
      "name": "updateBotProxy",
      "outputs": [],
      "stateMutability": "nonpayable",
      "type": "function"
    },
    {
      "inputs": [
        {
          "internalType": "address",
          "name": "_newTreasury",
          "type": "address"
        }
      ],
      "name": "updateTreasury",
      "outputs": [],
      "stateMutability": "nonpayable",
      "type": "function"
    }
  ],
  "bytecode": "0x60806040523480156200001157600080fd5b5060405162001385380380620013858339810160408190526200003491620001a6565b33806200005c57604051631e4fbdf760e01b8152600060048201526024015b60405180910390fd5b620000678162000139565b50600180556001600160a01b038116620000b75760405162461bcd60e51b815260206004820152601060248201526f496e76616c696420747265617375727960801b604482015260640162000053565b6001600160a01b038216620001035760405162461bcd60e51b8152602060048201526011602482015270496e76616c696420626f742070726f787960781b604482015260640162000053565b600280546001600160a01b039283166001600160a01b0319918216179091556003805493909216921691909117905550620001f0565b600080546001600160a01b038381166001600160a01b0319831681178455604051919092169283917f8be0079c531659141344cd1fd0a4f28419497f9722a3daafe3b4186f6b6457e09190a35050565b80516001600160a01b0381168114620001a157600080fd5b919050565b600080600060608486031215620001bc57600080fd5b620001c78462000189565b9250620001d76020850162000189565b9150620001e76040850162000189565b90509250925092565b61118580620002006000396000f3fe608060405234801561001057600080fd5b506004361061014d5760003560e01c80638456cb59116100c3578063bebe4a571161007c578063bebe4a57146102b9578063cc4bd336146102cc578063ea8a1af0146102df578063f046395a146102e7578063f2fde38b14610331578063f6847c821461034457600080fd5b80638456cb591461023f57806389a30271146102475780638c1bd0d7146102625780638da5cb5b146102755780639ac7e09e14610286578063a19c04bf1461029157600080fd5b806354a246b91161011557806354a246b9146101bd5780635586402d146101c85780635c975abb146101db57806361d027b3146101f9578063715018a6146102245780637f51bb1f1461022c57600080fd5b80630cbebc24146101525780630d932e701461017f57806324c08252146101895780633f4ba83a146101a257806349c7e639146101aa575b600080fd5b610165610160366004610fd3565b61034e565b604051610176959493929190611034565b60405180910390f35b6101876103fa565b005b6101946308f0d18081565b604051908152602001610176565b6101876106e2565b6101876101b8366004611067565b6106f2565b6101946311e1a30081565b6101946101d6366004611067565b610a58565b600054600160a01b900460ff165b6040519015158152602001610176565b60025461020c906001600160a01b031681565b6040516001600160a01b039091168152602001610176565b610187610ace565b61018761023a366004610fd3565b610ae0565b610187610b82565b61020c733c499c542cef5e3811e1192ce70d8cc03d5c335981565b610187610270366004610fd3565b610b92565b6000546001600160a01b031661020c565b610194630393870081565b6102a461029f366004611067565b610c34565b60408051928352602083019190915201610176565b6101e96102c7366004610fd3565b610cc6565b60035461020c906001600160a01b031681565b610187610d58565b6103216102f5366004610fd3565b600460205260009081526040902080546001820154600283015460039093015460ff9283169391921684565b6040516101769493929190611088565b61018761033f366004610fd3565b610d9f565b61019462278d0081565b6001600160a01b0381166000908152600460205260408082208151608081019092528054839283928392839283929091829060ff16600381111561039457610394610ffc565b60038111156103a5576103a5610ffc565b81526001820154602080830191909152600283015460408084019190915260039093015460ff161515606092830152835190840151928401519390910151909a91995091975090955042881115945092505050565b610402610dda565b61040a610e05565b33600090815260046020526040812090815460ff16600381111561043057610430610ffc565b0361047b5760405162461bcd60e51b815260206004820152601660248201527527379030b1ba34bb329039bab139b1b934b83a34b7b760511b60448201526064015b60405180910390fd5b805460009061048c9060ff16610a58565b604051636eb1769f60e11b8152336004820152306024820152909150600090733c499c542cef5e3811e1192ce70d8cc03d5c33599063dd62ed3e90604401602060405180830381865afa1580156104e7573d6000803e3d6000fd5b505050506040513d601f19601f8201168201806040525081019061050b91906110b3565b90508181101561055d5760405162461bcd60e51b815260206004820152601b60248201527f496e73756666696369656e74205553444320616c6c6f77616e636500000000006044820152606401610472565b6002546040516323b872dd60e01b81523360048201526001600160a01b03909116602482015260448101839052600090733c499c542cef5e3811e1192ce70d8cc03d5c3359906323b872dd906064016020604051808303816000875af11580156105cb573d6000803e3d6000fd5b505050506040513d601f19601f820116820180604052508101906105ef91906110cc565b9050806106355760405162461bcd60e51b81526020600482015260146024820152731554d110c81d1c985b9cd9995c8819985a5b195960621b6044820152606401610472565b42846001015411156106635762278d0084600101600082825461065891906110ee565b909155506106769050565b61067062278d00426110ee565b60018501555b42600285015560038401805460ff1916600190811790915584549085015460405133927f1af2f2c576585623f24cdd3d12995de86e6d2ef881e797dab79b51bc71fb0a9a926106cb9260ff9290921691611115565b60405180910390a2505050506106e060018055565b565b6106ea610e2f565b6106e0610e5c565b6106fa610dda565b610702610e05565b600081600381111561071657610716610ffc565b036107525760405162461bcd60e51b815260206004820152600c60248201526b24b73b30b634b2103a34b2b960a11b6044820152606401610472565b600061075d82610a58565b9050600081116107a45760405162461bcd60e51b8152602060048201526012602482015271496e76616c6964207469657220707269636560701b6044820152606401610472565b604051636eb1769f60e11b8152336004820152306024820152600090733c499c542cef5e3811e1192ce70d8cc03d5c33599063dd62ed3e90604401602060405180830381865afa1580156107fc573d6000803e3d6000fd5b505050506040513d601f19601f8201168201806040525081019061082091906110b3565b9050818110156108725760405162461bcd60e51b815260206004820152601b60248201527f496e73756666696369656e74205553444320616c6c6f77616e636500000000006044820152606401610472565b6002546040516323b872dd60e01b81523360048201526001600160a01b03909116602482015260448101839052600090733c499c542cef5e3811e1192ce70d8cc03d5c3359906323b872dd906064016020604051808303816000875af11580156108e0573d6000803e3d6000fd5b505050506040513d601f19601f8201168201806040525081019061090491906110cc565b90508061094a5760405162461bcd60e51b81526020600482015260146024820152731554d110c81d1c985b9cd9995c8819985a5b195960621b6044820152606401610472565b336000908152600460205260408120600381015490919060ff1680156109735750428260010154115b156109925762278d00826001015461098b91906110ee565b90506109a2565b61099f62278d00426110ee565b90505b81548690839060ff191660018360038111156109c0576109c0610ffc565b0217905550600180830182905542600284015560038301805460ff1916909117905560006109ed87610eb1565b90506000806109fb89610c34565b91509150336001600160a01b03167f559531f26d3d225cebcd22eb4b5a893fffe267028468d998315d80fd4bdd22fb8a8a87604051610a3c93929190611130565b60405180910390a25050505050505050610a5560018055565b50565b60006001826003811115610a6e57610a6e610ffc565b03610a7e57506303938700919050565b6002826003811115610a9257610a92610ffc565b03610aa257506308f0d180919050565b6003826003811115610ab657610ab6610ffc565b03610ac657506311e1a300919050565b506000919050565b610ad6610e2f565b6106e06000610f16565b610ae8610e2f565b6001600160a01b038116610b305760405162461bcd60e51b815260206004820152600f60248201526e496e76616c6964206164647265737360881b6044820152606401610472565b600280546001600160a01b038381166001600160a01b0319831681179093556040519116919082907f4ab5be82436d353e61ca18726e984e561f5c1cc7c6d38b29d2553c790434705a90600090a35050565b610b8a610e2f565b6106e0610f66565b610b9a610e2f565b6001600160a01b038116610be25760405162461bcd60e51b815260206004820152600f60248201526e496e76616c6964206164647265737360881b6044820152606401610472565b600380546001600160a01b038381166001600160a01b0319831681179093556040519116919082907f34bc10ae1b2c09142d97fbf577b85f20e1404901023860fb6b2b309a13222dba90600090a35050565b6000806001836003811115610c4b57610c4b610ffc565b03610c6257506305f5e10092633b9aca0092509050565b6002836003811115610c7657610c76610ffc565b03610c8e5750631dcd65009264012a05f20092509050565b6003836003811115610ca257610ca2610ffc565b03610cbb57506402540be4009264174876e80092509050565b506000928392509050565b6001600160a01b038116600090815260046020526040808220815160808101909252805483929190829060ff166003811115610d0457610d04610ffc565b6003811115610d1557610d15610ffc565b8152600182015460208201526002820154604082015260039091015460ff1615156060918201528101519091508015610d515750428160200151115b9392505050565b3360008181526004602052604080822060038101805460ff1916905590519092917f5213c53f2b929aa370ea1f22f57b571b8a8d78a193eb26b0d9596561e335aa0491a250565b610da7610e2f565b6001600160a01b038116610dd157604051631e4fbdf760e01b815260006004820152602401610472565b610a5581610f16565b600054600160a01b900460ff16156106e05760405163d93c066560e01b815260040160405180910390fd5b600260015403610e2857604051633ee5aeb560e01b815260040160405180910390fd5b6002600155565b6000546001600160a01b031633146106e05760405163118cdaa760e01b8152336004820152602401610472565b610e64610fa9565b6000805460ff60a01b191690557f5db9ee0a495bf2e6ff9c91a7834c1ba4fdd244a5e8aa4e537bd38aeae4b073aa335b6040516001600160a01b03909116815260200160405180910390a1565b60006001826003811115610ec757610ec7610ffc565b03610ed457506001919050565b6002826003811115610ee857610ee8610ffc565b03610ef557506002919050565b6003826003811115610f0957610f09610ffc565b03610ac657506003919050565b600080546001600160a01b038381166001600160a01b0319831681178455604051919092169283917f8be0079c531659141344cd1fd0a4f28419497f9722a3daafe3b4186f6b6457e09190a35050565b610f6e610dda565b6000805460ff60a01b1916600160a01b1790557f62e78cea01bee320cd4e420270b5ea74000d11b0c9f74754ebdbfc544b05a258610e943390565b600054600160a01b900460ff166106e057604051638dfc202b60e01b815260040160405180910390fd5b600060208284031215610fe557600080fd5b81356001600160a01b0381168114610d5157600080fd5b634e487b7160e01b600052602160045260246000fd5b6004811061103057634e487b7160e01b600052602160045260246000fd5b9052565b60a081016110428288611012565b6020820195909552604081019390935290151560608301521515608090910152919050565b60006020828403121561107957600080fd5b813560048110610d5157600080fd5b608081016110968287611012565b846020830152836040830152821515606083015295945050505050565b6000602082840312156110c557600080fd5b5051919050565b6000602082840312156110de57600080fd5b81518015158114610d5157600080fd5b8082018082111561110f57634e487b7160e01b600052601160045260246000fd5b92915050565b604081016111238285611012565b8260208301529392505050565b6060810161113e8286611012565b60208201939093526040015291905056fea2646970667358221220e668fa85e426b5eb513275eef4e2290ba79431dc194fc27ffd284326efd3d64d64736f6c63430008140033",
  "linkReferences": {},
  "deployedLinkReferences": {}
}